{
  "contractName": "Dataawal",
  "abi": [
    {
      "inputs": [],
      "payable": false,
      "stateMutability": "nonpayable",
      "type": "constructor"
    },
    {
      "anonymous": false,
      "inputs": [
        {
          "indexed": false,
          "internalType": "uint256",
          "name": "id",
          "type": "uint256"
        },
        {
          "indexed": false,
          "internalType": "string",
          "name": "hashawal",
          "type": "string"
        },
        {
          "indexed": false,
          "internalType": "string",
          "name": "jeniskopi",
          "type": "string"
        },
        {
          "indexed": false,
          "internalType": "string",
          "name": "petani",
          "type": "string"
        },
        {
          "indexed": false,
          "internalType": "string",
          "name": "tanam",
          "type": "string"
        },
        {
          "indexed": false,
          "internalType": "string",
          "name": "keterangan",
          "type": "string"
        },
        {
          "indexed": false,
          "internalType": "string",
          "name": "tanggal",
          "type": "string"
        },
        {
          "indexed": false,
          "internalType": "address",
          "name": "author",
          "type": "address"
        }
      ],
      "name": "PostCreated",
      "type": "event"
    },
    {
      "constant": true,
      "inputs": [],
      "name": "name",
      "outputs": [
        {
          "internalType": "string",
          "name": "",
          "type": "string"
        }
      ],
      "payable": false,
      "stateMutability": "view",
      "type": "function"
    },
    {
      "constant": true,
      "inputs": [],
      "name": "postCount",
      "outputs": [
        {
          "internalType": "uint256",
          "name": "",
          "type": "uint256"
        }
      ],
      "payable": false,
      "stateMutability": "view",
      "type": "function"
    },
    {
      "constant": true,
      "inputs": [
        {
          "internalType": "uint256",
          "name": "",
          "type": "uint256"
        }
      ],
      "name": "posts",
      "outputs": [
        {
          "internalType": "uint256",
          "name": "id",
          "type": "uint256"
        },
        {
          "internalType": "string",
          "name": "hashawal",
          "type": "string"
        },
        {
          "internalType": "string",
          "name": "jeniskopi",
          "type": "string"
        },
        {
          "internalType": "string",
          "name": "petani",
          "type": "string"
        },
        {
          "internalType": "string",
          "name": "tanam",
          "type": "string"
        },
        {
          "internalType": "string",
          "name": "keterangan",
          "type": "string"
        },
        {
          "internalType": "string",
          "name": "tanggal",
          "type": "string"
        },
        {
          "internalType": "address",
          "name": "author",
          "type": "address"
        }
      ],
      "payable": false,
      "stateMutability": "view",
      "type": "function"
    },
    {
      "constant": false,
      "inputs": [
        {
          "internalType": "string",
          "name": "_hashawal",
          "type": "string"
        },
        {
          "internalType": "string",
          "name": "_jeniskopi",
          "type": "string"
        },
        {
          "internalType": "string",
          "name": "_petani",
          "type": "string"
        },
        {
          "internalType": "string",
          "name": "_tanam",
          "type": "string"
        },
        {
          "internalType": "string",
          "name": "_keterangan",
          "type": "string"
        },
        {
          "internalType": "string",
          "name": "_tanggal",
          "type": "string"
        }
      ],
      "name": "createPost",
      "outputs": [],
      "payable": false,
      "stateMutability": "nonpayable",
      "type": "function"
    }
  ],
  "bytecode": "0x608060405260006001553480156200001657600080fd5b506040518060400160405280601881526020017f416e68617220416879616875646120466974726961726469000000000000000081525060009080519060200190620000649291906200006b565b506200011a565b828054600181600116156101000203166002900490600052602060002090601f016020900481019282601f10620000ae57805160ff1916838001178555620000df565b82800160010185558215620000df579182015b82811115620000de578251825591602001919060010190620000c1565b5b509050620000ee9190620000f2565b5090565b6200011791905b8082111562000113576000816000905550600101620000f9565b5090565b90565b61119f806200012a6000396000f3fe608060405234801561001057600080fd5b506004361061004c5760003560e01c806306fdde03146100515780630b1e7f83146100d457806317906c2e146103d15780637c46bde2146103ef575b600080fd5b61005961079d565b6040518080602001828103825283818151815260200191508051906020019080838360005b8381101561009957808201518184015260208101905061007e565b50505050905090810190601f1680156100c65780820380516001836020036101000a031916815260200191505b509250505060405180910390f35b610100600480360360208110156100ea57600080fd5b810190808035906020019092919050505061083b565b604051808981526020018060200180602001806020018060200180602001806020018873ffffffffffffffffffffffffffffffffffffffff1673ffffffffffffffffffffffffffffffffffffffff16815260200187810387528e818151815260200191508051906020019080838360005b8381101561018c578082015181840152602081019050610171565b50505050905090810190601f1680156101b95780820380516001836020036101000a031916815260200191505b5087810386528d818151815260200191508051906020019080838360005b838110156101f25780820151818401526020810190506101d7565b50505050905090810190601f16801561021f5780820380516001836020036101000a031916815260200191505b5087810385528c818151815260200191508051906020019080838360005b8381101561025857808201518184015260208101905061023d565b50505050905090810190601f1680156102855780820380516001836020036101000a031916815260200191505b5087810384528b818151815260200191508051906020019080838360005b838110156102be5780820151818401526020810190506102a3565b50505050905090810190601f1680156102eb5780820380516001836020036101000a031916815260200191505b5087810383528a818151815260200191508051906020019080838360005b83811015610324578082015181840152602081019050610309565b50505050905090810190601f1680156103515780820380516001836020036101000a031916815260200191505b50878103825289818151815260200191508051906020019080838360005b8381101561038a57808201518184015260208101905061036f565b50505050905090810190601f1680156103b75780820380516001836020036101000a031916815260200191505b509e50505050505050505050505050505060405180910390f35b6103d9610c33565b6040518082815260200191505060405180910390f35b61079b600480360360c081101561040557600080fd5b810190808035906020019064010000000081111561042257600080fd5b82018360208201111561043457600080fd5b8035906020019184600183028401116401000000008311171561045657600080fd5b91908080601f016020809104026020016040519081016040528093929190818152602001838380828437600081840152601f19601f820116905080830192505050505050509192919290803590602001906401000000008111156104b957600080fd5b8201836020820111156104cb57600080fd5b803590602001918460018302840111640100000000831117156104ed57600080fd5b91908080601f016020809104026020016040519081016040528093929190818152602001838380828437600081840152601f19601f8201169050808301925050505050505091929192908035906020019064010000000081111561055057600080fd5b82018360208201111561056257600080fd5b8035906020019184600183028401116401000000008311171561058457600080fd5b91908080601f016020809104026020016040519081016040528093929190818152602001838380828437600081840152601f19601f820116905080830192505050505050509192919290803590602001906401000000008111156105e757600080fd5b8201836020820111156105f957600080fd5b8035906020019184600183028401116401000000008311171561061b57600080fd5b91908080601f016020809104026020016040519081016040528093929190818152602001838380828437600081840152601f19601f8201169050808301925050505050505091929192908035906020019064010000000081111561067e57600080fd5b82018360208201111561069057600080fd5b803590602001918460018302840111640100000000831117156106b257600080fd5b91908080601f016020809104026020016040519081016040528093929190818152602001838380828437600081840152601f19601f8201169050808301925050505050505091929192908035906020019064010000000081111561071557600080fd5b82018360208201111561072757600080fd5b8035906020019184600183028401116401000000008311171561074957600080fd5b91908080601f016020809104026020016040519081016040528093929190818152602001838380828437600081840152601f19601f820116905080830192505050505050509192919290505050610c39565b005b60008054600181600116156101000203166002900480601f0160208091040260200160405190810160405280929190818152602001828054600181600116156101000203166002900480156108335780601f1061080857610100808354040283529160200191610833565b820191906000526020600020905b81548152906001019060200180831161081657829003601f168201915b505050505081565b6002602052806000526040600020600091509050806000015490806001018054600181600116156101000203166002900480601f0160208091040260200160405190810160405280929190818152602001828054600181600116156101000203166002900480156108ed5780601f106108c2576101008083540402835291602001916108ed565b820191906000526020600020905b8154815290600101906020018083116108d057829003601f168201915b505050505090806002018054600181600116156101000203166002900480601f01602080910402602001604051908101604052809291908181526020018280546001816001161561010002031660029004801561098b5780601f106109605761010080835404028352916020019161098b565b820191906000526020600020905b81548152906001019060200180831161096e57829003601f168201915b505050505090806003018054600181600116156101000203166002900480601f016020809104026020016040519081016040528092919081815260200182805460018160011615610100020316600290048015610a295780601f106109fe57610100808354040283529160200191610a29565b820191906000526020600020905b815481529060010190602001808311610a0c57829003601f168201915b505050505090806004018054600181600116156101000203166002900480601f016020809104026020016040519081016040528092919081815260200182805460018160011615610100020316600290048015610ac75780601f10610a9c57610100808354040283529160200191610ac7565b820191906000526020600020905b815481529060010190602001808311610aaa57829003601f168201915b505050505090806005018054600181600116156101000203166002900480601f016020809104026020016040519081016040528092919081815260200182805460018160011615610100020316600290048015610b655780601f10610b3a57610100808354040283529160200191610b65565b820191906000526020600020905b815481529060010190602001808311610b4857829003601f168201915b505050505090806006018054600181600116156101000203166002900480601f016020809104026020016040519081016040528092919081815260200182805460018160011615610100020316600290048015610c035780601f10610bd857610100808354040283529160200191610c03565b820191906000526020600020905b815481529060010190602001808311610be657829003601f168201915b5050505050908060070160009054906101000a900473ffffffffffffffffffffffffffffffffffffffff16905088565b60015481565b6000865111610c4757600080fd5b60016000815480929190600101919050555060405180610100016040528060015481526020018781526020018681526020018581526020018481526020018381526020018281526020013373ffffffffffffffffffffffffffffffffffffffff16815250600260006001548152602001908152602001600020600082015181600001556020820151816001019080519060200190610ce69291906110c5565b506040820151816002019080519060200190610d039291906110c5565b506060820151816003019080519060200190610d209291906110c5565b506080820151816004019080519060200190610d3d9291906110c5565b5060a0820151816005019080519060200190610d5a9291906110c5565b5060c0820151816006019080519060200190610d779291906110c5565b5060e08201518160070160006101000a81548173ffffffffffffffffffffffffffffffffffffffff021916908373ffffffffffffffffffffffffffffffffffffffff1602179055509050507f859104c8fcb8c0ed9cbb5ae87163cc546c0f229114c63c3af8e52bb1d7953b2e60015487878787878733604051808981526020018060200180602001806020018060200180602001806020018873ffffffffffffffffffffffffffffffffffffffff1673ffffffffffffffffffffffffffffffffffffffff16815260200187810387528e818151815260200191508051906020019080838360005b83811015610e79578082015181840152602081019050610e5e565b50505050905090810190601f168015610ea65780820380516001836020036101000a031916815260200191505b5087810386528d818151815260200191508051906020019080838360005b83811015610edf578082015181840152602081019050610ec4565b50505050905090810190601f168015610f0c5780820380516001836020036101000a031916815260200191505b5087810385528c818151815260200191508051906020019080838360005b83811015610f45578082015181840152602081019050610f2a565b50505050905090810190601f168015610f725780820380516001836020036101000a031916815260200191505b5087810384528b818151815260200191508051906020019080838360005b83811015610fab578082015181840152602081019050610f90565b50505050905090810190601f168015610fd85780820380516001836020036101000a031916815260200191505b5087810383528a818151815260200191508051906020019080838360005b83811015611011578082015181840152602081019050610ff6565b50505050905090810190601f16801561103e5780820380516001836020036101000a031916815260200191505b50878103825289818151815260200191508051906020019080838360005b8381101561107757808201518184015260208101905061105c565b50505050905090810190601f1680156110a45780820380516001836020036101000a031916815260200191505b509e50505050505050505050505050505060405180910390a1505050505050565b828054600181600116156101000203166002900490600052602060002090601f016020900481019282601f1061110657805160ff1916838001178555611134565b82800160010185558215611134579182015b82811115611133578251825591602001919060010190611118565b5b5090506111419190611145565b5090565b61116791905b8082111561116357600081600090555060010161114b565b5090565b9056fea265627a7a723158200a098dc97b05e358082aa37f0c9a23ea291ecacde04d22b063b1da375961e39264736f6c63430005100032",
  "source": "pragma solidity ^0.5.0;\n\ncontract Dataawal {\n    string public name;\n    uint public postCount = 0;\n    mapping(uint => Post) public posts;\n\n    struct Post {\n        uint id;\n        string hashawal;\n        string jeniskopi;\n        string petani;\n        string tanam;\n        string keterangan;\n        string tanggal;\n        address  author;\n    }\n\n\n    event PostCreated(\n        uint id,\n        string hashawal,\n        string jeniskopi,\n        string petani,\n        string tanam,\n        string keterangan,\n        string tanggal,\n        address  author\n    );\n\n\n    constructor() public {\n        name = \"Anhar Ahyahuda Fitriardi\";\n    }\n\n    function createPost(string memory _hashawal,string memory _jeniskopi,string memory _petani,string memory _tanam,string memory _keterangan,string memory _tanggal   ) public {\n        // Require valid content\n        require(bytes(_hashawal).length > 0);\n        // Increment the post count\n        postCount ++;\n        // Create the post\n        posts[postCount] = Post(postCount, _hashawal,_jeniskopi,_petani,_tanam,_keterangan,_tanggal, msg.sender);\n        // Trigger event\n        emit PostCreated(postCount, _hashawal,_jeniskopi,_petani,_tanam,_keterangan,_tanggal,  msg.sender);\n    }\n\n\n\n}\n",
  "sourcePath": "/Users/akmalmstfa/Project/Skripsi/src/contracts/Dataawal.sol",
  "compiler": {
    "name": "solc",
    "version": "0.5.16+commit.9c3226ce.Emscripten.clang"
  },
  "schemaVersion": "3.2.4",
  "updatedAt": "2020-09-01T07:22:50.361Z",
  "networkType": "ethereum",
  "devdoc": {
    "methods": {}
  },
  "userdoc": {
    "methods": {}
  }
}